{
    "abi": [
        {
            "type": "constructor",
            "inputs": [],
            "stateMutability": "nonpayable"
        },
        {
            "type": "function",
            "name": "getCarbonFootPrintAvoided",
            "inputs": [],
            "outputs": [
                {
                    "name": "",
                    "type": "uint256",
                    "internalType": "uint256"
                }
            ],
            "stateMutability": "view"
        },
        {
            "type": "function",
            "name": "updateCarbonFootprintAvoided",
            "inputs": [
                {
                    "name": "_carbonAvoided",
                    "type": "uint256",
                    "internalType": "uint256"
                }
            ],
            "outputs": [],
            "stateMutability": "nonpayable"
        },
        {
            "type": "function",
            "name": "updateToNewYear",
            "inputs": [
                {
                    "name": "_newYear",
                    "type": "uint16",
                    "internalType": "uint16"
                }
            ],
            "outputs": [],
            "stateMutability": "nonpayable"
        },
        {
            "type": "event",
            "name": "CarbonFootprintUpdated",
            "inputs": [
                {
                    "name": "user",
                    "type": "address",
                    "indexed": true,
                    "internalType": "address"
                },
                {
                    "name": "carbonFootprintAvoided",
                    "type": "uint256",
                    "indexed": true,
                    "internalType": "uint256"
                }
            ],
            "anonymous": false
        }
    ],
    "bytecode": {
        "object": "0x60a06040526002805461ffff19166107e717905534801561001f57600080fd5b503360805260805161020a61003f6000396000610127015261020a6000f3fe608060405234801561001057600080fd5b50600436106100415760003560e01c806311945f9914610046578063497dcf461461005b5780639025aed11461008c575b600080fd5b610059610054366004610169565b61009f565b005b60025461ffff1660009081526020818152604080832033845290915290205460405190815260200160405180910390f35b61005961009a366004610182565b61011c565b60025461ffff16600090815260208181526040808320338452909152812080548392906100cd9084906101ad565b909155505060025461ffff1660009081526020818152604080832033808552925280832054905190927fc6770c48060ba232e75b45b0c4c47d3dd1115b574020b61e1163849d565147cb91a350565b336001600160a01b037f0000000000000000000000000000000000000000000000000000000000000000161461015157600080fd5b6002805461ffff191661ffff92909216919091179055565b60006020828403121561017b57600080fd5b5035919050565b60006020828403121561019457600080fd5b813561ffff811681146101a657600080fd5b9392505050565b808201808211156101ce57634e487b7160e01b600052601160045260246000fd5b9291505056fea2646970667358221220565b7c6158320ec76e687442c13e6ee6df7093f9e39fb465a1c6335311fa468064736f6c63430008140033",
        "linkReferences": {}
    },
    "methodIdentifiers": {
        "getCarbonFootPrintAvoided()": "497dcf46",
        "updateCarbonFootprintAvoided(uint256)": "11945f99",
        "updateToNewYear(uint16)": "9025aed1"
    },
    "id": 22
}